{
  "contractName": "ZombieFactory",
  "abi": [
    {
      "constant": true,
      "inputs": [
        {
          "name": "",
          "type": "uint256"
        }
      ],
      "name": "zombies",
      "outputs": [
        {
          "name": "name",
          "type": "string"
        },
        {
          "name": "dna",
          "type": "uint256"
        }
      ],
      "payable": false,
      "stateMutability": "view",
      "type": "function"
    },
    {
      "constant": true,
      "inputs": [
        {
          "name": "",
          "type": "uint256"
        }
      ],
      "name": "zombieToOwner",
      "outputs": [
        {
          "name": "",
          "type": "address"
        }
      ],
      "payable": false,
      "stateMutability": "view",
      "type": "function"
    },
    {
      "anonymous": false,
      "inputs": [
        {
          "indexed": false,
          "name": "zombieId",
          "type": "uint256"
        },
        {
          "indexed": false,
          "name": "name",
          "type": "string"
        },
        {
          "indexed": false,
          "name": "dna",
          "type": "uint256"
        }
      ],
      "name": "NewZombie",
      "type": "event"
    },
    {
      "constant": false,
      "inputs": [
        {
          "name": "_name",
          "type": "string"
        }
      ],
      "name": "createRandomZombie",
      "outputs": [],
      "payable": false,
      "stateMutability": "nonpayable",
      "type": "function"
    }
  ],
  "bytecode": "0x60806040526010600055600054600a0a60015534801561001e57600080fd5b506106d98061002e6000396000f300608060405260043610610057576000357c0100000000000000000000000000000000000000000000000000000000900463ffffffff1680632052465e1461005c578063528b7b8f146101095780637bff0a0114610176575b600080fd5b34801561006857600080fd5b50610087600480360381019080803590602001909291905050506101df565b6040518080602001838152602001828103825284818151815260200191508051906020019080838360005b838110156100cd5780820151818401526020810190506100b2565b50505050905090810190601f1680156100fa5780820380516001836020036101000a031916815260200191505b50935050505060405180910390f35b34801561011557600080fd5b50610134600480360381019080803590602001909291905050506102aa565b604051808273ffffffffffffffffffffffffffffffffffffffff1673ffffffffffffffffffffffffffffffffffffffff16815260200191505060405180910390f35b34801561018257600080fd5b506101dd600480360381019080803590602001908201803590602001908080601f01602080910402602001604051908101604052809392919081815260200183838082843782019150505050505091929192905050506102dd565b005b6002818154811015156101ee57fe5b9060005260206000209060020201600091509050806000018054600181600116156101000203166002900480601f01602080910402602001604051908101604052809291908181526020018280546001816001161561010002031660029004801561029a5780601f1061026f5761010080835404028352916020019161029a565b820191906000526020600020905b81548152906001019060200180831161027d57829003601f168201915b5050505050908060010154905082565b60036020528060005260406000206000915054906101000a900473ffffffffffffffffffffffffffffffffffffffff1681565b600080600460003373ffffffffffffffffffffffffffffffffffffffff1673ffffffffffffffffffffffffffffffffffffffff1681526020019081526020016000205414151561032c57600080fd5b61033582610356565b905060648181151561034357fe5b06810390506103528282610444565b5050565b600080826040516020018082805190602001908083835b602083101515610392578051825260208201915060208101905060208303925061036d565b6001836020036101000a0380198251168184511680821785525050505050509050019150506040516020818303038152906040526040518082805190602001908083835b6020831015156103fb57805182526020820191506020810190506020830392506103d6565b6001836020036101000a03801982511681845116808217855250505050505090500191505060405180910390206001900490506001548181151561043b57fe5b06915050919050565b6000600160026040805190810160405280868152602001858152509080600181540180825580915050906001820390600052602060002090600202016000909192909190915060008201518160000190805190602001906104a6929190610608565b50602082015181600101555050039050336003600083815260200190815260200160002060006101000a81548173ffffffffffffffffffffffffffffffffffffffff021916908373ffffffffffffffffffffffffffffffffffffffff160217905550600460003373ffffffffffffffffffffffffffffffffffffffff1673ffffffffffffffffffffffffffffffffffffffff168152602001908152602001600020600081548092919060010191905055507f88f026aacbbecc90c18411df4b1185fd8d9be2470f1962f192bf84a27d0704b78184846040518084815260200180602001838152602001828103825284818151815260200191508051906020019080838360005b838110156105c75780820151818401526020810190506105ac565b50505050905090810190601f1680156105f45780820380516001836020036101000a031916815260200191505b5094505050505060405180910390a1505050565b828054600181600116156101000203166002900490600052602060002090601f016020900481019282601f1061064957805160ff1916838001178555610677565b82800160010185558215610677579182015b8281111561067657825182559160200191906001019061065b565b5b5090506106849190610688565b5090565b6106aa91905b808211156106a657600081600090555060010161068e565b5090565b905600a165627a7a72305820a0a8b3d345934e0c9a257b52ae7d765a5d96dd38be1605e2b99e30ff1ab6d7760029",
  "source": "pragma solidity ^0.4.24;\r\n\r\ncontract ZombieFactory {\r\n\r\n    event NewZombie(uint zombieId, string name, uint dna);\r\n\r\n    uint dnaDigits = 16;\r\n    uint dnaModulus = 10 ** dnaDigits;\r\n\r\n    struct Zombie {\r\n        string name;\r\n        uint dna;\r\n    }\r\n\r\n    Zombie[] public zombies;\r\n\r\n    mapping (uint => address) public zombieToOwner;\r\n    mapping (address => uint) ownerZombieCount;\r\n\r\n    function _createZombie(string _name, uint _dna) internal {\r\n        uint id = zombies.push(Zombie(_name, _dna)) - 1;\r\n        zombieToOwner[id] = msg.sender;\r\n        ownerZombieCount[msg.sender]++;\r\n        emit NewZombie(id, _name, _dna);\r\n    }\r\n\r\n    function _generateRandomDna(string _str) private view returns (uint) {\r\n        uint rand = uint(keccak256(abi.encodePacked(_str)));\r\n        return rand % dnaModulus;\r\n    }\r\n\r\n    function createRandomZombie(string _name) public {\r\n        require(ownerZombieCount[msg.sender] == 0);\r\n        uint randDna = _generateRandomDna(_name);\r\n        randDna = randDna - randDna % 100;\r\n        _createZombie(_name, randDna);\r\n    }\r\n\r\n}\r\n",
  "sourcePath": "D:\\Blvnp\\_Contracts\\cryptoZombieLesson2\\contracts\\zombiefactory.sol",
  "compiler": {
    "name": "solc",
    "version": "0.4.24+commit.e67f0147.Emscripten.clang"
  },
  "schemaVersion": "2.0.1",
  "updatedAt": "2018-11-10T11:02:46.834Z"
}